:1000000002308A00662A00005D080739F7005D0C9F
:10001000F800F80CF80C1F30F80578085F0784002A
:10002000831360188317F801F80AF70A1828F80DE7
:10003000F70B1728DE0803192028780880042328E6
:10004000F8097808800508005D30840083130008F3
:10005000031938280130F800F701F70B2D28F80BA9
:100060002C284A30F700F70B33283628800B2A2833
:1000700008005D080739F7005D0CF800F80CF80C73
:100080001F30F80578085E07840083135F18831714
:100090000008F800F70A4D28F80CF70B4C28080068
:1000A0005F0DF700F70DFC30F7051F08C339770423
:1000B0009F000630F700F70B5B2800009F149F1885
:1000C0005F281E08FA0083161E08F8007A08F90057
:1000D000831208005E0BA2285D08F83E0318A128D1
:1000E000083ED82800308316870083120716A128FF
:1000F00000308316870083128716A12800308316EC
:10010000870083120717A128003083168700831207
:100110008717A12800308316870083120714A128AF
:1001200000308316870083128714A12800308316BD
:10013000870083120715A1280030831687008312D9
:100140008715D7285D08F83E0318D728083EE4280D
:1001500000308316870083120712D72800308316D9
:10016000870083128712D7280030831687008312F6
:100170000713D72800308316870083128713D728E8
:1001800000308316870083120710D72800308316AB
:10019000870083128710D7280030831687008312C8
:1001A0000711D728003083168700831287110800B3
:1001B0000A108A100A118207722878287E2884285B
:1001C0008A28902896289C280A108A100A118207EB
:1001D000A828AE28B428BA28C028C628CC28D228F7
:1001E0005D0B28295C08F83E03182729083E5E2984
:1001F00000308316880083120815272900308316E3
:1002000088008312881427290030831688008312FF
:10021000081427290030831688008312881727299D
:1002200000308316880083120817272900308316B0
:1002300088008312881627290030831688008312CD
:1002400008162729003083168800831288155D2937
:100250005C08F83E03185D29083E6A2900308316C1
:100260008800831208115D290030831688008312EC
:1002700088105D29003083168800831208105D29DC
:10028000003083168800831288135D29003083169E
:100290008800831208135D290030831688008312BA
:1002A00088125D29003083168800831208125D29A8
:1002B0000030831688008312881108000A148A10FF
:1002C0000A118207F828FE2804290A29102916296C
:1002D0001C2922290A148A100A1182072E2934297E
:1002E0003A29402946294C29522958295A08DD0023
:1002F000DF012130DE00392078080139031DD829BB
:100300005A08DB0003105B0D333EF800FA010318B6
:10031000FA0A7808DC007A08DD002B305B078400DD
:1003200083130008DE00DF0050205C088400831384
:100330005D188317840A7908800084037808800098
:100340005B08DD000130DE006A205B08DC00013064
:10035000DD00F0200230DC00FA30DD002420DC0B70
:10036000AC2903105B0D433EF800FA010318FA0AAA
:100370007808DC007A08DD002B305B0784008313EB
:100380000008DE00DF0050205C08840083135D1845
:100390008317840A790880008403780880005B084A
:1003A000DD000130DE00E0012130DF000420E7291C
:1003B0005A08DD00DE016A205A08DC00DD01F02069
:1003C0005A08DD00DE01E0012130DF0004200800D2
:1003D000DB01DA01DC015C08073C031C302A5C0805
:1003E000DD00DF012130DE00392078080139013CD1
:1003F000031D2E2A2B305C07840083130008DD00C8
:10040000DF0050207908DB007808DA005B08013C47
:100410000318112AFF3A031D1B2A5A08263C031C05
:100420001B2A5B08013C031C2E2A031D1B2A5A08A9
:10043000F03C031C2E2A5C08DD00DE016A205C080B
:10044000DD00DE01E0012130DF0004205C08DD007A
:100450000130DE00E0015330DF000420DC0AEB292C
:100460008A110A12A72B561C632ADA015A08073C84
:10047000031C632A5A08DD00DF015330DE003920F7
:1004800078080139013C031D4B2A5A08DC00013071
:10049000DD00F020612ADB015B08073C031C612AB8
:1004A0005B08DD00DF015330DE00392078080139B8
:1004B000013C031D5F2A5B08DC00DD01F020DB0A44
:1004C0004C2ADA0A362A8A110A12BA2B61308316AC
:1004D0008F000F0819308312A000D401D5015610E7
:1004E000831603170908C039890003131F129F12CE
:1004F0000030031788008312870188018901831364
:100500001F30830507300313AB000430AC00053007
:10051000AD000630AE00AF010130B0000230B100D6
:100520000330B200831603170908C039890003138A
:100530001F129F127F3003178800831203131F17A7
:100540009F1783169F1783121F14FF308316860090
:10055000003087008800091089100911891188006E
:10056000831208118316880083128810831688006E
:10057000831208108316880083128813831688005C
:10058000831208138316880083128812831688004A
:10059000831208128316880083128811831687003D
:1005A000831207128316870083128712831687002F
:1005B000831207138316870083128713831687001D
:1005C0008312071083168700831287108316870013
:1005D000831207118316870083128711831609116E
:1005E00083120911D7015708073C031C002B570839
:1005F000DD00DE01E0015330DF000420D70AF32ADA
:100600000430DA00FA30DD002420DA0B022B8316E6
:1006100086178312861F0F2B221CA30A102B221071
:10062000831606178312061F182BA21CA40A192B67
:10063000A210831686168312861E212B221DA50A60
:10064000222B2211831606168312061E2A2BA21DA8
:10065000A60A2B2BA211831686158312861D332B17
:10066000221EA70A342B2212831606158312061D9A
:100670003C2BA21EA80A3D2BA212831686148312BD
:10068000861C452B221FA90A462B2213831606140B
:100690008312061C4E2BA21FAA0A4F2BA21320085E
:1006A0002302031D672B2214A301D8015808073C1D
:1006B000031C632B5808DD00DE01E0015330DF002E
:1006C0000420D80A562B8316091183120911200819
:1006D0002402031D702BA214A4010130DA0076213C
:1006E00020082502031D792B2215A5010230DA000E
:1006F000762120082602031D822BA215A6010330B5
:10070000DA00762120082702031D8B2B2216A70171
:100710000430DA00762120082802031D942BA2164B
:10072000A8010530DA00762120082902031D9D2B3F
:100730002217A9010630DA00762120082A02031DBB
:10074000A62BA217AA010730DA007621E82901308A
:10075000DD0024205618AF2BD50AD401B12BD501CA
:10076000D40A5508D03C031956145408D03C031938
:100770005610332AD9015908073C031CD02B5908BD
:10078000DD00DF015330DE00392078080139013CFB
:10079000031DCE2B8316091183120915D90ABB2B11
:0407A000072B6300C0
:04400E00E42CFF3F60
:00000001FF
;PIC16F887
;CRC=2E3B  CREATED="22-Sep-23 16:40"
